:020000041000EA
:1000000000B5324B212058609868022188439860DF
:10001000D860186158612E4B002199600221596106
:100020000121F02299502B49196001219960352056
:1000300000F044F80222904214D00621196600F024
:1000400034F8196E01211966002018661A6600F04E
:100050002CF8196E196E196E052000F02FF8012189
:100060000842F9D1002199601B49196000215960AB
:100070001A491B48016001219960EB211966A021F2
:10008000196600F012F800219960164914480160C1
:100090000121996001BC002800D000471248134993
:1000A000086003C880F30888084703B5996A0420EC
:1000B0000142FBD001200142F8D103BD02B5186610
:1000C0001866FFF7F2FF186E186E02BD00000240BE
:1000D000000000180000070000035F00212200005C
:1000E000F4000018222000A00001001008ED00E03C
:1000F00000000000000000000000000074B24E7A12
:1001000000200420F7010010CB010010CD010010E9
:10011000C9010010C9010010C9010010C901001077
:10012000C9010010C9010010C9010010CF01001061
:10013000C9010010C9010010D1010010D301001045
:10014000C1010010C1010010C1010010C101001067
:10015000C1010010C1010010C1010010C101001057
:10016000C1010010C1010010C1010010C101001047
:10017000C1010010C1010010C1010010C101001037
:10018000C1010010C1010010C1010010C101001027
:10019000C1010010C1010010C1010010C101001017
:1001A000C1010010C1010010C1010010C101001007
:1001B000C1010010C1010010C1010010C1010010F7
:1001C000EFF30580103800BE00BE00BE00BE00BECA
:1001D00000BE00BEF2EB88719C4D0010BC4D0010BB
:1001E0003802001090A31AE71E481F49086006C88D
:1001F00081F3088810471D480068002801D019487D
:10020000F3E70DA40ECC002902D000F012F8F9E7B4
:100210001749184A002000E001C19142FCD116495B
:100220008847164988471649884700BEFDE701C937
:1002300001C29A42FBD37047BC4D0010C0000020A1
:10024000701000206C5D00100000042000000420ED
:100250006C5D00100010042000100420000000005D
:10026000704700000000000008ED00E0000000D032
:100270007010002004210020A91C00102103001090
:10028000A11C0010F8B5C0460448054B10B58342C8
:1002900003D0044B002B00D0984710BD70100020F5
:1002A000701000200000000006480749091A8B1052
:1002B000C90FC91810B5491003D0044B002B00D04A
:1002C000984710BD70100020701000200000000042
:1002D00010B5074C2378002B09D1FFF7D5FF054B4C
:1002E000002B02D0044800E000BF0123237010BDA2
:1002F000F81300200000000088490010054B10B5DD
:10030000002B03D00449054800E000BFFFF7CCFFF5
:1003100010BDC04600000000FC13002088490010FA
:10032000F0B5C64600B501F0BFFDD024022000F0B4
:1003300071F8042324060320636200F06BF808239D
:100340000A20A36200F066F80B2000F063F80C208E
:1003500000F060F88023DB00636280231B0163628E
:1003600080235B01636204230425984643460220F0
:100370000021A36100F0CEFE0A200021656100F09B
:10038000C9FE0822A56163681A42FCD000F080FF14
:10039000082206000F0063681A42FCD100F078FFC3
:1003A000801BB94101F0CEFB174901F05EFB1749F4
:1003B000061C01F09DFB00280DD08023DB00A3610B
:1003C00080231B01A36180235B01A3616361C820BB
:1003D00000F0B4FECAE70E49301C01F089FB80230F
:1003E000DB00A361002807D180221201A2618022D4
:1003F0005201A2616361EAE7802380221B0152015E
:10040000A361A2616361E2E700006842000020414D
:100410000000F0410123D0228340120693629361D1
:10042000094A83009A1811684022514080320A40DC
:100430000649C0008C4663441A60054B9C46052360
:10044000604443607047C04604C0014004D001408E
:10045000004001408023DB051868000F7047C0464C
:100460000FB400B5084883B001F06EFD049B002B6B
:1004700007D005A91800019101F0F8FB034801F02D
:1004800063FD012001F00AFC884900109849001022
:1004900070B5EFF3108C72B60D4D2B68002BFCD0AD
:1004A000BFF35F8F0724CB08C618C05C01230C4044
:1004B000A3401C000440034207D118433070BFF32F
:1004C0005F8F2C608CF3108870BD1000FFF7C8FFA1
:1004D0002C0100D0F8B54746CE46884680B5EFF3EC
:1004E000108C72B6214D2C68002CFCD0BFF35F8FAE
:1004F0009A422CD8D4080727055D06190124174015
:10050000BC402C421FD007210127894609E0D408AE
:10051000055D06194C4639001440A1400C002942E3
:1005200011D001329342F2D201204042BFF35F8FDB
:1005300000220E4B1A608CF3108800280FDBC0BC21
:10054000B946B046F8BD254310003570EEE7BFF35D
:100550005F8F00232B608CF31088012040424346BC
:10056000002BECD00898FFF77BFFC0462C0100D091
:10057000044A1078431CDBB2172B00D910231370E8
:100580007047C046A00F002010B5064B064C82B045
:100590000100009318221F232000FFF79BFF02B0E9
:1005A00010BDC0469C490010481C00200021044B8F
:1005B000044ABFF35F8F02C39342FAD17047C0462B
:1005C000000100D0800100D0054B064A1360064AA6
:1005D000136053609360D3601361536193617047FC
:1005E0008080808000E400E004E400E01F231840E5
:1005F0001E3B8340002905D0C021044A49005350C6
:1006000013607047802201498B50FAE700E100E057
:1006100001228240034B1B6813405A1E9341D8B2FB
:100620007047C04600E100E001238340014A1360A7
:100630007047C04600E200E0064B10309B68800027
:10064000C358054A00209B1A2F229A424041C0B24B
:100650007047C04600ED00E0A40F002070B50D000B
:10066000EFF3108672B60F4A1368002BFCD0BFF36D
:100670005F8F0D4B10309B6884001B590B4A9342CF
:1006800003D09D4201D001F015F8074B9B681D5126
:10069000BFF35F8FBFF35F8F0022024B1A6086F3B8
:1006A000108870BD240100D000ED00E0C1010010F1
:1006B000F0B557464E46DE464546E0B585B00600E5
:1006C00000911700EFF3108B72B66A4A1368002B83
:1006D000FCD0BFF35F8F0025674B5D579A46002D16
:1006E00000DAA9E06B00654C01935B199B0098460A
:1006F000A146C1444B4652469B7910361370604B5D
:10070000B6009B6899590B1B2F2B33D95D4B99422F
:1007100000D0ACE0019B42469C465B4B6544AD007B
:1007200063535A4B0232A218043B9B1A1B05584ACA
:100730005B0D651913436B80564B0121AB80FF2382
:10074000AB71009BEF71AB604B460B4319004C4BF8
:100750009B689951BFF35F8FBFF35F8F0022454BBA
:100760001A608BF3108805B0F0BCBB46B246A946B0
:10077000A046F0BD01200A008243D3798C46BB42DB
:1007800031D84546130044491B1B5B415943090DB1
:100790003D4B63533D4B02356519043B5B1B1B0509
:1007A0003B4D5B0D2B43AA464D466B800425AC4662
:1007B0005546E044131F44441B1B1B055B0D1D43A2
:1007C0004B46997100999D8099604946DF71334B82
:1007D00001431360BBE75800C01880002018C1799E
:1007E000B9422FD902000623D356002BF3DA029325
:1007F0002B4B61460393131D9A4604235B429C4690
:10080000E14450464B461B1A1B055B0D9C46204B92
:10081000957198466346404603439380019B5A195D
:100820009200039BA418A380029B1C4AA371009B07
:100830002260E771A3608AE700F03CFF0025534681
:100840005D574FE7908802934005131D9A460315A4
:1008500061469C464046D444634604302018181A2A
:10086000E0230005400D1B0218430390C5E700F08C
:1008700021FF4FE7240100D0FD200020A40F00201D
:1008800000ED00E0C101001000A1FFFFD40F002027
:1008900000E0FFFF01BDFFFFAAAA0000014880475A
:1008A00001BD000070B501240443EFF30581EFF3AF
:1008B000108C72B6214A1368002BFCD0BFF35F8FF7
:1008C0001F4B05001F4AED1A6D416A43120D1E4D64
:1008D0008900AE6852B27658A6421CD006215956FD
:1008E00091421CD012215956914222D01E215956B4
:1008F000914220D02A2159560324914210D0134B03
:1009000019781A708171BFF35F8F00220B4B1A6048
:100910008CF3108870BDAB680D4C5C50EFE7002481
:100920006100091989005B18FF21997109499980B3
:10093000E5E70124F4E70224F2E7C046240100D0F1
:10094000A40F0020AAAA000000ED00E0FD20002076
:10095000C101001001BDFFFF10B5084B084C82B06B
:1009600001000093002205232000FFF7B3FD0028BB
:1009700001DB1F23181A02B010BDC046B849001091
:1009800001210020024B9C466144890001607047B0
:100990004000003470B5114C114DAC420FD2FF260F
:1009A0002368002B0CD0FFF7E3FD01002000FFF7C8
:1009B000E9FFA680BFF35F8F0834AC42F0D370BD6F
:1009C000FFF7D6FD01002000FFF7DCFF2671BFF323
:1009D0005F8F0834AC42E3D3F1E7C04668100020D3
:1009E0007010002010B50400FFF7C2FD01002000C8
:1009F000FFF7C8FFFF232371BFF35F8F10BDC04611
:100A000010B504000120FFF7BFFD034BC3189B0086
:100A10002360BFF35F8F10BD40000034034B9C4642
:100A2000614489000160BFF35F8F7047400000346C
:100A30000A4B1968EFF3108072B60A68002AFCD0DE
:100A4000BFF35F8F1B68BFF35F8F00221A6080F3D4
:100A5000108840BF002000217047C046DC200020E5
:100A6000F0B5DE4657464E464546E0B583B0EFF357
:100A7000058203231340B54A9900525800919046CD
:100A800001229A409346B24B1A60B24B01935B46E7
:100A9000B1484363434608229B5E9946002B3ADAED
:100AA00043469B881BB2002B00DB9DE043469B79AD
:100AB000002B00D0E1E0434608241C5F002C20DB23
:100AC00043465A6963001B19DB00D3189D68DC6834
:100AD0006B1C00D103E1A048009984466144826AFE
:100AE0000B69AE1A9B1A9E4213D35A46036A1A42E6
:100AF0000FD0994800F0C4FB8C4202DCC7D185427C
:100B0000C5D940BF03B0F0BCBB46B246A946A0461B
:100B1000F0BD0D61EDE7424652695B0092464B44E1
:100B2000DB009A4453469E68DF6800F0A9FB8F42C1
:100B3000B6DC00D1F8E0002F00DAD9E05246534687
:100B400054691B69019A934200D1CCE04146524658
:100B50000820085E528800042100104398470400D2
:100B60000D0023002B4300D1C2E0002D00DBDFE0AD
:100B700030003900001BA94153469860D96000221B
:100B80009A5E002A00DA8BE743465D6953009C18A1
:100B9000E4002C19A768E4688C4200DD80E702D1EC
:100BA000874200D97CE74646328108360DE08C4208
:100BB00000D1C6E01E000023F25E002A0ADB5300CB
:100BC0009C18E4002C19A768E4689B18DB00EB185C
:100BD0008C42ECDD53461A804B46338043469B885B
:100BE0001BB2002B00DA61E743461A69EFF310816C
:100BF00072B61368002BFCD0BFF35F8F43469E880C
:100C0000012342465B42938036B21369BFF35F8F84
:100C100000221A6081F31088002E00DA46E743466E
:100C20005D69083342469C467700BF19FF00EF1903
:100C3000BB68604698460823D15E9246FC6800294E
:100C400007DA0EE0A24246D018000023C15E002958
:100C500006DB4B005B18DB00EB18DA68A242F1DD23
:100C6000524606800023FE5E3980002EDCDA904674
:100C700043469B79002B00D11DE700234246937128
:100C8000434646460821595E08364B1C00D138E7DA
:100C900047468946556902E006004B1C18D04B00B8
:100CA0005B18DB00E8180A008C46E95E43881BB23B
:100CB000002BF1DA01235B42DC178360C4604A45F4
:100CC00003D031803B8903803A81E1464B1CE6D159
:100CD000B8464C46F2E69A684245B5D9C0E7631C6F
:100CE00000D0F8E605E7200023699847002825D1C1
:100CF000534642461B8813811269EFF3108372B684
:100D000011680029FCD0BFF35F8F424651465288DC
:100D10000A804246494651801269BFF35F8F002125
:100D2000116083F31088BBE6864200D803E7B7E67C
:100D3000094800F0A5FA001969411DE765682468B3
:100D40000FE7874200D835E744E7C046C0200020BF
:100D50003C700540610A00100040054070B52E4C03
:100D60002569002D04D00A212C48FFF70BFE70BD29
:100D70002B4E0321300000F079FAE660FFF7F8FB14
:100D8000284B03229C46D02322701B061B6801219E
:100D90006370254B6044A3600F2380002061022014
:100DA000638063694942A180198002311986473105
:100DB0001D83585218315A5275325C399952183283
:100DC0000131995218320131995218320131995238
:100DD000083518329D5202311832995218320131B9
:100DE0009952183201319952183201319952183200
:100DF000013199521832013199520C4B0C49DC6087
:100E000001303562FFF72AFC01210320FFF7EEFBDA
:100E1000084B1D60A7E7C046EC0F0020DC20002037
:100E20000040054040000034FFFF1000C0200020BB
:100E3000610A00103860054000487047EC0F002040
:100E4000F8B51F0008AB1B7804001600002B08D172
:100E500000F01EFA32003B00121A8B41002B00DA20
:100E600053E02269EFF3108072B61368002BFCD0B8
:100E7000BFF35F8F0223E15E63694A005218D2001C
:100E80009B18002937DB1A8862802269BFF35F8FC5
:100E90000025156080F31088069A9E60DF601A6155
:100EA000079A5A615A8801325204520C101C002AC7
:100EB0001FD082B25880080410432669EFF31087D0
:100EC00072B63268002AFCD0BFF35F8FA2881A8006
:100ED000A1802369BFF35F8F00221A6087F3108817
:100EE0000B4923788C4601329A40E36863441A60C8
:100EF000F8BD0120DDE72369BFF35F8F00221A6090
:100F000080F3108801204042F2E70020F0E7C0465D
:100F10003C20000070B501000469EFF3108C72B63C
:100F200020680028FCD0BFF35F8F02200D5E4C6963
:100F300068004019C0002418002D37DB2088488045
:100F40000869BFF35F8F002606608CF31088E360AA
:100F500063880498013320615B0405985B0CA260F0
:100F600060611A1C002B1FD093B2280462801843C2
:100F70000A69EFF3108C72B61368002BFCD0BFF334
:100F80005F8F8B8823808D800B69BFF35F8F00227A
:100F90001A608CF310880B7801329A40CB680849AC
:100FA0008C4663441A6070BD0122DDE70B69BFF314
:100FB0005F8F00221A608CF3108801204042F2E714
:100FC0003C20000010B543890A1493421ADD5300F7
:100FD0009B184269DB00D3180469EFF3108C72B6DA
:100FE0002268002AFCD0BFF35F8F5A88090494B2AC
:100FF000090C8A4208D00369BFF35F8F00221A6090
:101000008CF31088002010BD8022120214435C80F3
:10101000012302698371BFF35F8F002111608CF39C
:101020001088044902788C469340C26801206244CB
:101030001360E8E73C20000040787047F0B50400FA
:101040000D0006267642F717C64636196F4100B5E1
:1010500082B08F4214D811D000F01AF932003B0050
:10106000121A8B41002B17DC002B47D020002900DF
:1010700000F018F902B080BCB846F0BD8642EBD94A
:101080000022002316001F0000F002F932003B008E
:10109000121A8B41002BE7DD00F0FAF832003B001A
:1010A000121A8B41002B0ADB00230193154B3200EF
:1010B000009315483B00FFF72DFF0028D6DB0023E7
:1010C0009C46B046114A124E736A9F4204D8B16AD8
:1010D0008845CBD99F42C9D11168EFF3108072B611
:1010E0000B68002BFCD0BFF35F8F1368BFF35F8FDB
:1010F0006146196080F3108820BFE5E7002AB5D06B
:10110000CAE7C046310A0010EC0F0020DC200020A6
:101110000040054070B504000D0000F0B9F88023D0
:10112000001969411B06994202D30120024940423D
:10113000FFF784FF70BDC046FFFFFF7F70B506005C
:1011400000F0A6F8FA2204000D0000233000002170
:10115000920000F067FC8023001969411B06994248
:1011600002D3012002494042FFF768FF70BDC0462C
:10117000FFFFFF7FF0B5D6464F464646C0B5040098
:101180000D0082B0EFF305878946002F0ED0344959
:1011900000204B6AAB4203D38A6A0130A24226D3B5
:1011A00002B0E0BCBA46B146A846F0BD2D4B984609
:1011B000DB689A46434650461E7800F061F80B0003
:1011C000514602000436B600715820008E1A2900DC
:1011D000801A99418F4211DC0ED020BF204A002096
:1011E000536A4B45DCD3926A0130A242D8D25B1BD2
:1011F0005A1E9341D8B2D3E78642EED900F048F8A0
:1012000022002B00121A8B41002B1ADB00230193C2
:10121000154B2200009340462B00FFF77BFE011E7A
:101220000FDD0F4B5A6A4A4517D39B6AA34212D36C
:101230004046FFF7C7FE0A4A0020536A4B45AFD32A
:10124000D1E7074A0020536A4B45A9D3926A01208F
:10125000A242A5D2CBE74A45EAD120BFE8E7C04683
:1012600000400540EC0F0020310A001010B5024A82
:101270000248FFF70DF910BDD44900104C1C0020A6
:101280000300416A0A00986A596A8A42FAD1704793
:10129000034B596A0A00986A596A9142FAD1704719
:1012A00000400540064A536A9942FCD807D1044BD6
:1012B00002E05A6A914202D19A6A8242F9D3704797
:1012C00000400540F8B5DE464E4657464546E0B577
:1012D0008B4605000A991800160000F015FB0A9BC2
:1012E0006C001F02324B64199C46A400644463687E
:1012F00081469F4200D967602B1FDBB29846012BC5
:1013000030D9C02380229B01E31812011A60294BB7
:10131000AD0059599A4600291BD17301E026226875
:1013200053401E40802342465B01E3181E60012AA1
:1013300030D9802380229B01E31812011A605346A2
:101340004A4667605A51F0BCBB46B246A946A04621
:10135000F8BD586900F0D8FA013043001B18033B70
:10136000FDD2DAE75B46012BCBD1C02303229B01E0
:10137000E3181A60023AA3681A42FCD07301E0260F
:101380002268AD0053401E4080230A4A5B0192460A
:10139000E3181E605A462168514003220A401A6031
:1013A00001225B469A40A3681A42FCD0C1E7C046BE
:1013B00000800040501C0020F0B546464F46D646FF
:1013C000C0B51F00344B44009C462418A40064445C
:1013D000636888461600FF2B02D880235B00636099
:1013E000031FDBB29A46012B30D9C02380229B0118
:1013F000E31812011A60294B8500595999460029B2
:101400001BD17301E026226853401E4080235246C0
:101410005B01E3181E60012A30D9802380229B01E2
:10142000E31812011A6080235B0063604B465F5132
:10143000E0BCBA46B146A846F0BD586900F064FA6F
:10144000013043001B18033BFDD2DAE74346012B72
:10145000CBD1C02303229B01E3181A60023AA36890
:101460001A42FCD07301E0262268850053401E40DA
:1014700080230A4A5B019146E3181E6042462168B8
:10148000514003220A401A60012342469340A26859
:101490001342FCD0C1E7C04600800040501C002031
:1014A000014B8000C0587047501C0020F8B5040064
:1014B00021481E0017000D0000F026FA0100380038
:1014C00000F022FA069B36041B031E432368002B00
:1014D00020DB1A4B1A49E3185A1E934180229201CD
:1014E00094465B421B0B174A1B0363441360164A66
:1014F00013601F000A689743FBD1144B2560E21864
:101500002123A06013602368002BFCDA0823E66027
:101510001360F8BD3F2322681340AB42D9D1A368C2
:101520001B051B0D8342D4D1EE22E368D202134087
:10153000B342CED1EDE7C046001BB7000040FDBF6F
:1015400008C0004000E0004000F00040043000000F
:1015500010B580241C4BE4051C6000281AD0012320
:101560001A4C18431A4BDC611A4C44401C625962F5
:1015700098628021144BC905196017481749086003
:10158000E021C9041960002A07D18022144B1206F9
:101590001A6010BD0E4BD861EBE753019B1A9B00FC
:1015A0009A18802312015B049A4209D213000D4954
:1015B0000B60074B5A608022094BD2051A60E8E79E
:1015C000094B1A00F3E7C04600B00540D3C007B08E
:1015D000008005402D3FF84FFCFF0100082001402E
:1015E00000A00540B0200020FFFFFF008023024A3A
:1015F0009B000B43D362704700800540142310B555
:101600000100188804331B88984710BD162310B5B5
:101610000100188802331B88984710BDF8B547466B
:10162000CE4680B50F1E19D014239946043304000A
:101630000025012698464B461888434621681B889A
:10164000984701C4431E9841013540420640AF42CD
:10165000F1D13000C0BCB946B046F8BD0126F8E76C
:10166000142370B50400188804331B880D00054945
:10167000984703000020002C01DB0130A040290026
:101680009847C04655420000AA23064A1B01136032
:101690008D235B00D3600449044B19605368002B11
:1016A000FCDA70470040024000B0FA0000600240DF
:1016B0007047C04610B50148FEF7D2FEF849001049
:1016C00070B5074D074EB54209D20024013E761B86
:1016D000B60808CD984723000134B342F9D170BD54
:1016E000404900107C490010054B064A06491A6023
:1016F000064A074B1A6010000B689843FBD17047ED
:1017000000E00040BFCDFBFE08C00040FE7F3C0073
:1017100000F00040044BDB6C002B03D18022034B14
:10172000D2021A607047C046000011504C20115080
:10173000044A054B1A60054A1368DB018033FBD16C
:101740007047C046FFFFFF0100F0004008C00040A6
:101750004022034B9A675A671A67DA667047C04699
:1017600000F0014010B5FEF721FF10BDF8B5274984
:10177000274C284D641AA6103200302E00D9302292
:101780002800920000F064FABC2C3BD830202F23B4
:101790002C196407204A801BE40F9B1B052B16D9CC
:1017A0003700002C02D0B300771CEA50001B33191D
:1017B0009B004108EB18C900C9181A605A60083329
:1017C0009942FAD1012303421CD09843C619B300B1
:1017D000EA50731C2F2E15D09B00EA50B31C2E2EFE
:1017E00010D09B00EA50F31C2D2E0BD09B00EA502A
:1017F000331D2C2E06D09B00EA50731D2B2E01D0DA
:101800009B00EA50054B9D60F8BDC04600010010EA
:10181000C001001000000020C101001000ED00E038
:10182000002310B5294C82B0A367FFF72DFF0122DA
:10183000274B1A60636C012BFCD10322254B1A60E5
:10184000224A936B012BFCD1013300930121224AE0
:1018500022480433FFF72AFE052301210093204A82
:101860002048FFF723FE0022022104201E4BFFF731
:10187000A3FD0022012105201C4BFFF79DFD002246
:10188000002107201A4BFFF797FD002200210820B6
:10189000174BFFF791FD8023DB000093002200210E
:1018A0000920134BFFF70EFD0022104B00210620EC
:1018B000FFF782FD0420FFF7F3FD0E4900F024F846
:1018C00001000020FFF792FE02B010BD0080004032
:1018D0003CB0004030B00040002F6859008002400A
:1018E000008C864700C00240001BB70040597307B8
:1018F000006CDC0240420F0001480421014B1847F4
:10190000101000201D160010114A936F9B0813D26F
:1019100010665166002905D0FFE7FFE7FFE7516F2A
:10192000106F704704B5002801D00020C04302F0BA
:10193000BFFF002104BDC046F0B5146E556E576F51
:10194000166FFFF7E5FF1466556657671667F0BD1B
:10195000000000D0132370B51D78012D19D014DDBF
:101960001F48FFF753FE06001E48FFF74FFE1E4CB0
:1019700080223100200000F06BF9022D2DD01B4891
:10198000FFF73CFE1A4B186070BD1A4B164CA3644F
:10199000F5E7184B144C23606360A360E360236198
:1019A0006361A361E36123626362A362E362236311
:1019B0006363A363E36323646364A364E3642365F1
:1019C0006365A365E36523666366A366E3662367D1
:1019D0006367A367E367A364D1E7064BA364CEE71D
:1019E0005344000053460000F81100204C3300001F
:1019F000D8200020F919001007B5604601880A0AAE
:101A00000230DF2AFAD1C9B2820804D302884088A2
:101A10000004104300E00068014A5050039007BDE5
:101A2000F811002051434343C9188C46110C83B26E
:101A30004B4310B4040C614392B280B250436243F2
:101A40001C041B0C001910BC59411304120CC018C3
:101A500051416144704700004840414048400E4BAE
:101A60005B6818470C4B1B6818470C4A936F9B0820
:101A700002D2094BDB681847F0B5146E556E576FEC
:101A8000166FFFF7F6FF054A146655665767166727
:101A9000F0BD014B9B681847F8120020000000D0F1
:101AA00007B548404140484001E0C04607B5420004
:101AB000120E03D0FF2A03D1420218D8C00DC00570
:101AC0004A00120E03D0FF2A03D14A020FD8C90DD3
:101AD000C9050122414005D4414001D5814207BDDD
:101AE000884207BD0143491801D0C043001807BD13
:101AF00000B5FFF7DBFF804100BDC046C10FC9073D
:101B000000D54042002817D0F44603B40B4B1B68A5
:101B1000984706BC81409E384042803107D20B0670
:101B200007D04900490AC005104308436047013007
:101B3000F8E7490A8902F5E770470000D82000203D
:101B4000054A1047C2179142FAD0044BDB6DFC46A0
:101B500018475CDF031C0010FD1A0010F81200206B
:101B6000132310B512481C78FFF750FD0100012C1B
:101B70000AD003DD80220F4800F06AF80E48FFF714
:101B80003DFD0E4B186010BD0A4C5422200000F0A1
:101B90005FF80B4B6365A365E36523666366A36625
:101BA000E36623676367A367E3672362E361E5E7AF
:101BB00053460000F81200204C330000D8200020CB
:101BC000C51B001007B5604601880A0A0230DF2AEB
:101BD000FAD1C9B2820804D30288408800041043B5
:101BE00000E00068014A5050039007BDF812002041
:101BF000002230B5002906D5CD0705434808013A33
:101C000010E0002230B505000D430FD0CD170C16A3
:101C1000AC4205D1C901440E2143C0010732F6E7A9
:101C20000500080052423D320149884730BD00009E
:101C3000EF29000001480421014B18472010002023
:101C40001D160010014B1B681847000020100020D3
:101C5000014B5B68184700002010002010B50028D9
:101C600000D110BD00F024F9FBE7C04610B5094AC9
:101C70000300146884B0002C08D0012200910648AB
:101C8000524203A9A047012004B010BD00F05CF946
:101C90000020F9E7AC2000205D1C001000BEFDE72D
:101CA00010B5FFF7FBFFC04670B5FFF709FD074D04
:101CB000074EB54209D20024013E761BB60808CD76
:101CC000984723000134B342F9D170BD7C4900101C
:101CD00088490010030010B5080011001B689847E0
:101CE00010BDC046F0B5C64600B5437D07000D00E7
:101CF0001600002B38D0002A2EDD00216A1E9046E7
:101D00006A5C037D4C1C00200A2A0CD0A64216D027
:101D100043461B5D21000D3B5A4253416A5CDBB2D6
:101D20004C1C0A2AF2D1002BF0D1884217DB022189
:101D300010483B689847A64207D02000E8E7864253
:101D400003DD311A3B6828189847AD19013D2B78FF
:101D50000D3B5A4253413B7580BCB846F0BD091A51
:101D60003B6828189847E2E7036811002800984765
:101D7000F2E7C046384B0010F0B5DE4657464E46F7
:101D80004546E0B585B017001C0006000D00FFF7C2
:101D90007FFA0023314A12184B41802109068B42F9
:101DA00002D301222E4B52422E4908008A4602F0ED
:101DB0009FFD01906B1C03D1300002F0DDFC05009B
:101DC000002C26D0284B9846284B1C68002C15D098
:101DD000002F21D1264F02E02469002C0ED0236869
:101DE000002BF9D03B68002B01D09C42F4D120009D
:101DF0002A003100C0472469002CF0D1019B002B40
:101E000028D1280005B0F0BCBB46B246A946A04682
:101E1000F0BD184B9846D7E7154B994602ABDF1D2E
:101E20000A239B4602E02469002CE7D02368002B9C
:101E3000F9D04B461B68002B01D0A342F3D12A00F6
:101E400031002000C0475B460122390020003B7072
:101E5000C047E8E7504602F023FDD2E740420F00BA
:101E6000FFFFFF7F68100020E51C0010A01C002071
:101E7000A81C0020D51C00100A4A1368002B05D1AD
:101E80000CE01A001B691032002B07D09842F8D1E1
:101E9000002902D103691360016170470029FCD059
:101EA0001060FAE7A01C002010B500F08DFA10BDFC
:101EB000F0B5CE46474680B583B06B460600DD1DC3
:101EC0002870FFF7E5F900231A4A12184B418021C8
:101ED00009068B4202D30122174B524217490800D0
:101EE000884602F005FD164B81461C68002C14D074
:101EF000144F02E02469002C0FD02368002BF9D086
:101F00003B68002B01D09C42F4D120000122290023
:101F1000FFF7E8FE2469002CEFD14B46002B05D1DA
:101F2000300003B0C0BCB946B046F0BD404602F038
:101F3000B7FCF5E740420F00FFFFFF7F681000206D
:101F4000A01C0020A81C002070B5040002F014FCA6
:101F500001230100050001222000FFF70DFF084BBF
:101F60001C68002C06D06368002B05D098472469B4
:101F7000002CF8D1280070BD2469002CF3D1F9E7BA
:101F8000A01C00207047C0460022014B1A70704709
:101F9000FE2000204B790020FF2B0BD18B79002BEA
:101FA00008D1CB79012B05D1082A03D9024B8A78B5
:101FB00009301A707047C046FE200020012070478B
:101FC00010B5012901D0012010BD134953791079B2
:101FD00009781B02034300209942F5D15378012B65
:101FE00008D0022BF0D1002064220021FFF7B0FAC4
:101FF0000120E9E7D37891781B021943DB0507D567
:102000004A0A100001231A407E331940FFF728FBCB
:1020100001204A0A4042F5E7FE20002000487047B0
:10202000044C001070B5050014000120012909D1ED
:1020300053780020012B05D1637912791B021343D9
:10204000072B00D070BD21002800024A9F3301F009
:102050005FFAF7E75C4B00100123037000487047FC
:102060003C4B00104B780A781B0213438A7810B55A
:1020700012041A43CB781B0613439622D2009342D4
:1020800000D010BD0022012011004042FFF7E8FA05
:10209000024B1860024B19607047C046401C00207C
:1020A000441C002010B5024B1878FEF7BDFA10BD95
:1020B000FF200020154B70B51A68002A22D0EFF3DC
:1020C000108172B610680028FCD0BFF35F8F00202B
:1020D0000F4A596010701B68BFF35F8F186081F35F
:1020E0001088002400250B4E3078FEF791FA002866
:1020F00004D1002400252900200070BD3078FEF7AF
:1021000093FAF8E7FA240025A400ECE7B8200020B1
:1021100000210020FF20002070B5040000200E00E8
:1021200001F016FB002836D0002001F027FB002824
:1021300031D0FFF7ADF80023184A12184B41802127
:1021400009068B4216D2164D280002F0D1FB00285A
:1021500021D0002001F0FCFA00280FD1012000213D
:10216000404200F009FD03246442280002F098FB7D
:10217000200070BD01220B4B5242E4E7002001F029
:10218000FDFA0028EAD021003200002001F000FB17
:10219000041EEAD1E7E703246442E9E740420F0066
:1021A000E0200020FFFFFF7F10B5FFF771F800234C
:1021B0000E4A12184B41802109068B4202D301229C
:1021C0000B4B52420B4C200002F092FB00280CD02B
:1021D00001200021404200F0CFFC002001F022FB52
:1021E0000028F5D1200002F05BFB10BD40420F003B
:1021F000FFFFFF7FE0200020F8B5DE46574680B5A0
:1022000005000C00FFF744F80023374A12184B4131
:10221000802109068B4202D30122344B52423449B9
:1022200008008A4602F064FB002803D1C0BCBB460C
:10223000B246F8BD002001F08BFA00284AD00026F3
:10224000002C43DD2B4B9B4614E0A919002001F024
:1022500023FB070001200021404200F08DFC0020FC
:1022600001F0E0FAFFF714F8224BF61918605960F4
:10227000B4422BDD002001F02FFBA71B0200B84267
:1022800000DD3A00002AE0D101200021404200F0A8
:1022900073FC002001F0C6FA002001F059FA002872
:1022A00014D0002001F018FB0028E1D1FEF7F0FF68
:1022B0005B460F001A685B68002184460E481218BE
:1022C0004B419F4202D8D3D19445D1D9504602F018
:1022D000E7FAABE700200021064B18605960504632
:1022E00002F0DEFAA2E7C04640420F00FFFFFF7F88
:1022F000E0200020F011002020A1070030B52B4C79
:1023000085B00021200002F0DBFA00281CD1284B08
:102310001A68002A16D0EFF3108172B610680028F0
:10232000FCD0BFF35F8F01242248596002781B68FC
:10233000D2B20470BFF35F8F0020186081F3108861
:10234000002A17D005B030BD01200021404200F026
:1023500013FC002001F012FA0500200002F0A0FAA0
:10236000002DEFD0144B1B68002BEBD0134A1068E4
:102370009847E7E7FEF760FD0400FEF789FFFA22C1
:102380000023920012184B41802109068B4202D390
:1023900001220B4B52420121029100210191094976
:1023A00020000091FEF74CFDCCE7C046E020002065
:1023B000B820002000210020401C0020441C0020E8
:1023C000FFFFFF7FB5200010D02310B51B0684B09F
:1023D0001C68FEF731FDFEF72FFEA04202D0002060
:1023E00004B010BD2A4B002100201B7801F070FDC5
:1023F00028480368002B47D00120FEF7ADFAFF23E1
:10240000254C264920701840FEF728F92078012134
:10241000FEF7ECF80520FEF70FF9002826D1082278
:1024200000211F48FFF70EFCFEF706FD0400FEF733
:102430002FFFFA220023920012184B418021090637
:102440008B4202D30122174B5242012102910021FB
:102450000191154920000091FEF7F2FC0028BEDB37
:1024600012480121FFF708FD0120B9E70120FEF71E
:102470008BF80B4B01001800FEF7D0FA0022052064
:102480000B49FEF715F9EBE7FEF7ACFAB4E7C046E7
:10249000B84D0010E0200020FF200020FD22001099
:1024A000B8200020FFFFFF7FB52000103010002073
:1024B000A520001000487047A04C0010004870474D
:1024C0004C4C001010B5040017480378002B20D0A6
:1024D000002C06D1154B16484380063BFF3B03807A
:1024E00010BD052C19D8134BA400E0581249012344
:1024F000013804E001330A800231142B0FD0C25C92
:10250000002AF7D1C022DBB25B00920008481343D7
:10251000E5E7112100F01AF8DAE70020E0E7CA2326
:1025200003489B00DBE7C046E820002009040000C8
:10253000781C0020344C00107A1C002010B5024892
:1025400000F0D8F810BDC046D020002030B54B1E9A
:10255000012900D1A7E0664A11780D092C0030341A
:102560009F2900D9A2E00470012B00D1BEE00F2109
:10257000147821400C003034092900D998E04470C7
:10258000022B00D1B2E054782509290030319F2C6C
:1025900000D990E08170032B00D1A7E00F212140EA
:1025A0000C003034092900D987E0C470042B00D115
:1025B0009CE094782509290030319F2C00D97FE0D8
:1025C0000171052B00D191E00F2121400C00303426
:1025D000092900D976E04471062B00D186E0D47831
:1025E0002509290030319F2C00D96EE08171072B1D
:1025F00000D17BE00F2121400C003034092966D83E
:10260000C471082B00D171E01479250929003031FB
:102610009F2C5FD80172092B68D00F2121400C003C
:102620003034092958D844720A2B5FD054792509CF
:10263000290030319F2C52D881720B2B56D00F219C
:1026400021400C00303409294BD8C4720C2B4DD0DA
:1026500094792509290030319F2C00D90731017365
:102660000D2B43D00F2121400C003034092901D912
:1026700037310C0044730E2B38D0D1790C0922006D
:1026800030329F2900D9073282730F2B2ED00F22B0
:102690000A4011003731092A01D830321100C173C4
:1026A000102B23D010300023037030BD07345AE7BD
:1026B00037310C0063E707316CE737310C0074E702
:1026C00007317DE737310C0085E707318EE7373179
:1026D0000C0095E707319DE737310C00A3E7073180
:1026E000AAE737310C00C4720C2BB1D1C018DAE75D
:1026F000D020002010B588B004000D2200216846CB
:10270000FFF7A0FA0D22002104A8FFF79BFA4B2344
:102710006A466846137004A90D2202F0B9F8152123
:10272000082220006944FFF793FA08B010BDC046A4
:10273000F8B500F043F90C23194DFF22AB670520D3
:102740001849FDF7B5FF184C402200212000FFF783
:1027500079FA4027002301262121144A6670278335
:10276000A260136063545F31618445396354104A39
:1027700010496360E2602787A1620B606362E262D6
:1027800002F0CEF880239B052E64EB6490230A4A66
:102790000120EA508022094B5202DA64F8BDC0469B
:1027A00000001150E1040020AC1C002084001050F7
:1027B000000110508000105010D001000020115076
:1027C00010B501210520FDF711FF10BD10B5002245
:1027D0000021024800F012F910BDC046CC1C0020B8
:1027E000044B1970002904D080219023024A8902E9
:1027F000D1507047FA200020002011500B785B0662
:1028000002D14B78052B00D070478A78014B1A60B3
:10281000FAE7C04600001150F0B5C646C87800B5CA
:102820008007830F1800012B60D08F780A794B79CD
:102830007F213940FC091B024E001343334D3219EE
:102840005201AA18977001276740577000275B054F
:102850005B0DD7701383D076B846CA00012C32D0F6
:102860002B4FBC468F016244BC46AC446746BA60FD
:1028700047461760002932D0264AC9009046624672
:10288000414451603F223F339343022837D02249CD
:1028900037190A687F01D3180B602049EF19FA60D5
:1028A0008B422ED836197601AD19EB7E1C499B065A
:1028B0004A4013438022120613436A6813600120C2
:1028C00080BCB846F0BD174FBC468F016244BC4681
:1028D000AC446746BA6247461760002908D1002316
:1028E00064012C196360104BE360E8E70020E7E720
:1028F0000B4AC9009046624641445162C2E75B0000
:10290000C5E7FEF7D7FEFA68CCE7C046AC1C00204E
:102910008400105004001050B4200020FF0F10500D
:1029200000001050800010500001105010B501F050
:10293000F7FF10BD10B57F200C0020404000E409D7
:10294000110000191A00034B4001C01800F056F89E
:10295000012010BDAC1C00207F23180010B50840DA
:10296000CA090B4203D107497D3B9B1A8B66400085
:1029700080188022044B40010021C018120101F090
:10298000D7FF10BD00201150AC1C00207F22130087
:1029900010B50B400A4200D110BDC9095B005B189D
:1029A00004485B01C018002300220349C37001F0F2
:1029B000BFFFF1E7AC1C0020FFF7FFFF80220A4BAE
:1029C000520410B51A60094B09491A6010000B68CF
:1029D0009843FBD18022002152010648FFF732F9CB
:1029E0000922054B5A6710BD00E0004000F000408E
:1029F00008C000400000105000001150002310B526
:102A0000C3820133828283760161040001F068FF92
:102A1000002804D080219023074A8902D150200049
:102A200001F076FF002802D00123237710BD20009B
:102A300001F066FFFAE7C046002011507047C0461B
:102A40007047C04600207047002070477047C0465E
:102A50007047C0467047C0467047C046024B587822
:102A6000431E9841C0B2704758170020024B187897
:102A70004007C00F7047C04658170020F0B5D64633
:102A80004F464646C0B5314B07009A461B780E00AC
:102A9000FF2B01D0012044E0002941D00021542225
:102AA0002B48FFF7CFF800222A4C2B4B20001A703E
:102AB000FDF798FF294B1C60294C2000143CFDF7C2
:102AC0009FFF200001F00CFE264B274D1C60274B7A
:102AD000002B2BD02800FFF7BFFA254B2A7818606F
:102AE00024490024894622490023884610E04346B1
:102AF0001B6862019B18002B12D05B68002B0FD063
:102B000098472A780134E4B2511C2300A1420FDB1C
:102B1000A242ECD89B1A5B014B445B68002BEFD1BF
:102B20000020E0BCBA46B146A846F0BD2A78D7E7F7
:102B30005346310038001F70FFF7FAFD0028EFD030
:102B40003800FFF73DFE0120EBE7C046641000208F
:102B50005817002050170020FB200020AC17002041
:102B60005C100020B0170020F92000205920001030
:102B7000A81500205C4D0010F0B5DE4657464E46C5
:102B80004546E0B5C84B91B002931B78FF2B00D1AE
:102B90003EE1C64BC64E9B465F46C64B0DAC01930D
:102BA000C54B009335686A69EFF3108172B61368FC
:102BB000002BFCD0BFF35F8FA9612800210001F03A
:102BC000BDFB6A69AB69BFF35F8F0021116083F3BE
:102BD0001088002800D11BE16378082BE2D89B0005
:102BE000FB589F466368002BDCD0A0689847D9E764
:102BF0007F222179AF4D0A405300EB189846C8094F
:102C0000804440460123303005799D4305710579A4
:102C100003339D430571002A00D100E14346A74AD2
:102C20001B7D1278934200D3EFE0A54A5B01156843
:102C3000ED18002D00D1EBE0A36862792078AD6932
:102C4000A847AFE79F4A1378002B00D1E0E0137844
:102C5000013BDBB213701378002BA3D10122954DF9
:102C600001212B78042013432B703423EA5C8A4320
:102C7000EA54EA5C8243EA540133EA5C8A43EA5448
:102C8000EA5C8243EA54237800209B4600F0A0FCD3
:102C9000602223791A40602A00D1EFE0402A00D157
:102CA000F5E0DB06DB0E012B00D113E1022B00D196
:102CB000C7E0002B00D0E1E0202A00D11CE2002A6E
:102CC00000D0DBE06379092B00D9D7E07E4A9B0076
:102CD000D3589F46774D2B78DB0700D462E7FFF788
:102CE000BBFE5FE7019BDB78DB0700D45AE7606837
:102CF000FFF7A6FE56E76F4D2B78DB0700D451E7B0
:102D000028780007C00FFFF7A5FE4BE723786A4934
:102D100099468B46694B6A4998468A4639001A7823
:102D200047460023B04600254E46894610E05346EC
:102D30001B686A019B18002B00D176E0DB6830002D
:102D400098473A780135EDB2511C2B008D4244DC96
:102D50009542ECD39B1A5B015B44EFE7237858491B
:102D60009946564B8A4698463100BB464E461A78DD
:102D700000250023474689460FE053461B686A0139
:102D80009B18002B55D0DB68300098473A78013506
:102D9000EDB2511C2B008D4207DC9542EDD39B1AFE
:102DA000009A5B0194466344EDE7019D54220021A3
:102DB0002800FEF747FF1022FF214448FEF742FF9C
:102DC00028002022FF2114304E465F46FEF73AFFCE
:102DD00000F0F4FBFFF73CFEE4E6364D5422002100
:102DE0002800FEF72FFF1022FF21281DFEF72AFFE3
:102DF00028002022FF21143046464F46FEF722FFCE
:102E000000F0DCFB2379AB70CCE6501C984213DA5F
:102E100011B0F0BCBB46B246A946A046F0BDA368BF
:102E20006279207800F0E8FBBCE646464F46214D2B
:102E3000E6E74E465F46CBE71F4D9B1A5B015D19E7
:102E4000FAE67023217A0B4218D1C80982460F3363
:102E50000B405B0098461948EB1853441B7D0078E3
:102E60009946834266D216485B01006881469944C0
:102E7000002A00D15FE14B46002B68D12078002169
:102E8000FFF76AFD80212078FFF766FD8AE610488B
:102E900000F09EFB012158460EAAFFF7C3F8002858
:102EA00000D07FE6EAE7C04664100020B44C001072
:102EB000B0170020581700205C4D0010F9200020AA
:102EC000A8150020FB200020D84C00105C17002023
:102ED00025200010237A0F2BD0D8CF4AEB181B796E
:102EE0001578AB423ED3691C9942C7DB5D1BCB4BC7
:102EF0006D01ED18686900F06BFB012158466B69A4
:102F00000EAA9847002800D04CE6602215002379CD
:102F10001D401A42B2D163790A3B012BAED800F0B2
:102F200057FB63790A2B00D199E158460EA900F0AE
:102F3000D9FA37E6431C4B4500DAF7E04B461B1A3B
:102F40005B019946B5488144002A00D1F3E04B4625
:102F5000586900F03DFB4B46012158465B690EAABB
:102F600098479CE7AE4A5B011568ED18002DC1D16A
:102F700084E7A37999466B789945D6D06B78002B76
:102F800000D033E14B466B70002B00D12BE148465B
:102F90000138C0B2FFF792FA002800D17EE14378F1
:102FA0000793022B00D079E10122C179B1468B1140
:102FB000491113400A40302112015B0113432A7862
:102FC000A8468A4313432B7009239A4682445646E7
:102FD000BA46C37882781B021343C31805938E4BFD
:102FE00004938E4B08938E4B09938E4B0A93059B4B
:102FF000B34200D855E1737801220B2B03D133780B
:10300000F278F6187378042B00D044E1059B002772
:103010009B1B9BB20693049B0B921D78002303938A
:103020001BE0099A7B011568ED18002D00D132E1F3
:10303000310058462B69069A98478446082803D9D8
:10304000069A824200D313E1049B01371D78FFB238
:103050006B1C03979F4200DD1DE1BD42E1D8039B3D
:103060005D1B089B6D019C466544E1E76B780CAAEB
:1030700002321370584601230EA900F049FA91E577
:10308000E3881A0AD8B20F2A00D9F7E666499300F6
:10309000CB589F460EA800F0A1FA5846A179FFF739
:1030A00095FB02222B7813432B707BE5E388012BE1
:1030B00000D0E3E608222B78584693430EA92B70E4
:1030C00000F010FA6EE5022029780CAB9A1C8B06F2
:1030D0008908DB0F01400B431380584602230EA9D9
:1030E00000F016FA5EE5E388012B00D0C6E6082260
:1030F0002B7813432B7018E7237A0F2B00D9BDE6EA
:10310000EB181D79444B1B789D4228D2444B6D012E
:103110001B685D19002D00D1B0E6686900F058FA0F
:10312000012158466B690EAA9847B8E6002A00D0DC
:10313000A4E6002399466279022013000392834398
:10314000012B15D0002A00D098E62B0043445344AD
:1031500030331B790CAA9B07DB0F0232BCE75A1CE9
:10316000AA4200DA8AE6ED1A2C4B6D01ED18D4E77D
:10317000E388002B12D1029B1878039B012B23D0EC
:10318000FFF7EAFB43460221EB18534430331A7928
:103190000A4301211A711A790A431A714B46002B0E
:1031A00000D1FFE4586900F013FA4B4601215B6936
:1031B0000EAA58469847002000F00AFA3523EB5C27
:1031C000DB0700D5EEE4B0E6FFF7E0FB4346022163
:1031D000EB18534430331A798A431A711A790399D8
:1031E0008A431A71DAE7FFF733FC9EE6002158465E
:1031F000FFF7F6FA5846FFF799FBAB7807490393B8
:103200000491054B064998461A7805910023290038
:103210001D008A461BE0C046F92000205C4D0010CE
:10322000A81500206C170020004D0010059B6A01B6
:103230001B689B18002B4DD0DB68584698474346C7
:103240001A780135EDB2511C2B008D422EDC9542CF
:10325000ECD39B1A049A5B0194466344ECE70CABF5
:103260009A1C584601230EA9157000F051F999E4F3
:103270000B9A012A4FD0002A3CD00023B07804E0FA
:103280000133DBB20F71934234D2C118C9B2414449
:103290000D79FF2DF4D04E464546574600236B70FE
:1032A000ECE54E465746FFF7D1FB3EE65546542225
:1032B00000212800FEF7C6FC1022FF21281DFEF782
:1032C000C1FC28002022FF211430FEF7BBFC039B29
:1032D000AB7057E65546FAE7FEF7A0FE021E00D196
:1032E000CCE5D37891781B020B4358460EA900F029
:1032F0000FF9D4E565463B002A0031000A9800F03A
:103300008DFEAC46049B039A1B78664401339342BE
:1033100000DB6CE6BFE7174B29699942ADD1079AEC
:10332000ABE7FFF78FFB021E00D1A7E558461378E5
:103330000EA900F0EDF8B2E52189FFF7C3F8021EEF
:10334000F4D19BE5022A0FD0FFF77EFB021EC8D105
:1033500094E5FFF7AFF8021E00D18FE5122358461F
:103360000EA900F0D5F89AE5FFF7A8F8021EB8D12B
:1033700084E5C046DD390010F8B557464E46DE46B6
:1033800045460C00E0B516001F00002A3CD01F4B3C
:1033900000259A46702399461D4B9B4617E05B46D5
:1033A0002000997800F0FCFD00281FD02100404645
:1033B000FFF732FA002819D0A378DA09012A1CD0C5
:1033C0000A9A013513702378E418B5421CDA637841
:1033D000052B0BD1E3789B079B0FBB4206D15346CD
:1033E0004A461B789846A3781A42D8D00020F0BCF1
:1033F000BB46B246A946A046F8BD0B9A01351370EC
:103400002378E418B542E2DB0120F0E764100020E5
:1034100058170020702270B5094B0C001D788B786E
:103420001A4201D0002070BD064B2000997800F0B0
:10343000B7FD0028F6D021002800FFF7EDF9F2E7EC
:1034400064100020581700200B007F2010B5184092
:10345000DB0934334000044AC018044B1168C0181B
:1034600000F05AFD10BDC046AC17002058170020D0
:103470000B007F2010B51840DB0934334000044AAC
:10348000C018044B1168C01800F06EFD10BDC04696
:10349000AC1700205817002070B57F240F480C404F
:1034A00064000419CD09641930342079C00701D5AE
:1034B000002070BD01262579094835430078257123
:1034C000FFF738FA0028F4D10122237993432371BE
:1034D0002379033293432371EAE7C046581700204B
:1034E0006410002070B5094C0600082220000D0071
:1034F000FEF7AEFB00238021E360A3602B78300051
:10350000994300220023FFF7C7FF70BD3817002042
:10351000F8B5CE4647469046264E80B581460822ED
:1035200030000D001F00FEF793FB4346B3600023FD
:10353000F381EC79AB7924021C43231CBC4200D9F3
:103540003B1C9FB2B381002C0ED0002F18D04346F5
:10355000002B2CD03B1C402F1BD89FB233787F2BE5
:103560001CD80021144A0FE080212B7800229943B7
:1035700048460023FFF790FFC0BCB946B046F8BDEF
:103580007F230022317899433B004846FFF784FFB0
:10359000F2E740239FB233787F2BE2D9064C3A0002
:1035A00041462000FEF754FB80212200ECE700207A
:1035B000E2E7C04638170020F816002010B51422A4
:1035C00000210248FEF73EFB10BDC0463817002020
:1035D000014B18617047C0463817002010B5054CE4
:1035E000010008222000FEF733FB0023A360E36004
:1035F00010BDC0463817002070B5384C1D00237828
:103600000600DA09C9098A4210D00020002D00D036
:1036100070BD21003000FFF7F1F82369002B03D0C3
:1036200022000321300098470120F1E7A0687F2B9A
:1036300005D8002834D02A002949FEF709FBE28981
:10364000A1685219E38892B24919E281A1609342BC
:1036500014D03F2D12D9A389981A051C80B2402896
:103660002AD82078ADB27F2828D800219A4232D0BB
:103670001B4A2B003000FFF70FFFC9E72369002B1F
:1036800005D0220002213000984700280AD080216E
:1036900023780022994330000023FFF7FDFEB7E7AF
:1036A0000020B5E700213000FFF756F930008021F7
:1036B000FFF752F90120ABE74025D2E79A4207D045
:1036C000074C2A002000FEF7C3FA80212200D0E731
:1036D00080210022CDE70022CBE7C046381700202A
:1036E000F816002070B50500FFF7B8F9002800D1E2
:1036F00070BDFFF7BBF90028FAD1C8236B43124C09
:10370000E618F1780029F3D010331C19200000F0DE
:10371000FFFD3F28ECD90020F178FFF795FE002847
:10372000E6D0200000F0F4FD3F2808D9074BEA015D
:10373000D218F17840230020FFF7AEFED8E7F178E9
:103740000020FFF795FED3E730160020AC150020CF
:1037500010B50400FFF782F9002801D1002010BD48
:10376000FFF784F90028F9D1C8226243024B0130E7
:103770009B181B791840F2E730160020C82310B5BB
:1037800043430248181800F0A5FD10BD4016002064
:10379000F0B5C824C646802344431F4F10340500AB
:1037A00000B53C195B029A4200D31C4A200092B239
:1037B00000F012FE8046FFF751F9002803D1404681
:1037C00080BCB846F0BDFFF751F90028F7D1C826F4
:1037D0006E43BE19F378002BF1D0200000F098FD65
:1037E0003F28ECD90020F178FFF72EFE0028E6D024
:1037F000200000F08DFD3F2808D9094BEA01D218BE
:10380000F17840230020FFF747FED8E7F178002049
:10381000FFF72EFED3E7C04630160020FFFF000062
:10382000AC150020F8B50600FFF718F9002801D103
:103830000020F8BDFFF71AF90028F9D1C824744315
:103840002500134F2435ED19280000F043FD002812
:10385000EED03F190020B978FFF7F6FD0028E7D039
:103860000C4BF401E41821002800402200F0B4FDC4
:10387000B978051E08D0030022000020FFF70CFED7
:103880000028D5D02800D4E70020FFF7F1FDCFE7CE
:1038900030160020EC15002070B5C82444430C4BB2
:1038A0000500E41880235B029A4200D3094A2000F5
:1038B00092B200F059FE0600200000F00BFD3F28F8
:1038C00001D8300070BD2800FFF7ACFFF9E7C04613
:1038D00054160020FFFF0000C82310B543430248E0
:1038E000181800F015FD10BD54160020F0B5002585
:1038F000184C83B0C82200212000FEF7A3F9164B14
:1039000021001D70FF236371E1235B02A36020008F
:1039100008234022A37338310095073B103000F094
:10392000A3FC27000123210020002600402278313B
:103930000093B837243000F097FCC0363800FDF70C
:1039400051F83000FDF74EF8E561276226636563A4
:1039500003B0F0BD301600202C1600200B4B196B65
:1039600000290AD01A6A002A0DD000221A621A63AE
:10397000DA6100225A63012070471A6A002AFAD0DD
:10398000D9611962F7E71A63F3E7C04630160020E1
:1039900070B50F4C052200212000FEF753F90D4DA4
:1039A0002B78DA0707D50C4C9B070CD5012120009A
:1039B00000F0B6FE70BD2000103000F091FE2B78B4
:1039C000054C9B07F2D4200000F08AFEEEE7C046CB
:1039D000301600202C16002054160020F0B54B792C
:1039E000060083B0022B02D18B79022B03D0002575
:1039F000280003B0F0BD214FBB78002BF7D18B78A6
:103A000009253B700C780C196378242B0BD1082AFC
:103A100002D80FE0AA420DD32378E4185D19637829
:103A2000ADB2242BF6D0052B08D0042B02D163793C
:103A30000A2B11D00020FFF755FED9E721003000F6
:103A4000FFF7E8FC0028D2D0A3787B7023785D19BB
:103A5000E4186378ADB2E8E7094B277801930133A6
:103A60000093022202233000E119FFF785FC0028B1
:103A7000BDD00E35ED19ADB2DCE7C04630160020E2
:103A800032160020F8B560231400127805001340A8
:103A90000020202B07D1304A6379277916781B0242
:103AA0003B439E4200D0F8BD6378222B1AD007D842
:103AB000202B34D0212BF6D101293ED00120F2E772
:103AC000232BF0D1012940D00329F7D1234B002B20
:103AD000F4D0E178A37809020020194300E000BF88
:103AE0000120E0E7012930D00329E7D101252E008C
:103AF000A378E478023924021C431471264024324E
:103B00001000714000F00CFE154B002BD6D062085F
:103B1000002031002A4000E000BF0120C3E7012956
:103B20000BD00329CAD10F4B002BC7D0083200207D
:103B30001100FEF797FA0120B5E7072321002800BE
:103B4000094AFFF7E5FC0120ADE721002800FFF757
:103B5000C9FC0120A7E7C046301600200000000085
:103B6000000000006520001038160020F0B54F4618
:103B70004646D646364DC0B5EA781F0080460C0052
:103B8000AB788A423BD08B4210D00020E0BCBA46D2
:103B9000B146A846F0BD2F4B002B04D02E4800F0B4
:103BA000AFFB002851D00020FFF79CFDAB78A3426B
:103BB00001D00120EAE7294B002B02D0002000E0D1
:103BC00000BF0020FFF72EFE0028F2D1244C200079
:103BD00000F080FB0028ECD1002FEAD0BF06E8D12E
:103BE000243C4046A178FFF72FFC0028E1D00023B9
:103BF00000224046A178FFF74FFC0120C6E71023C2
:103C00009A46184EAA4431005046BAB200F0ACFCB5
:103C1000154B002BBFD06B79FF2BBCD0002FBAD037
:103C2000F219914603E00136B145B4D06B79327890
:103C30009A42F8D1504600F063FB0028F3D1534676
:103C4000103B597900E000BFEDE700E000BFAAE7B4
:103C50003016002000000000401600200000000088
:103C600054160020AC150020000000009322F0B58F
:103C7000134C85B0002120009200FDF7E3FF2300E4
:103C80002000802640270F4D4D337600FF3329302A
:103C90000295009300220023002103970196FF3034
:103CA00000F0D6F94035201D2834002301220021E0
:103CB000039702950196009400F0CAF905B0F0BD93
:103CC000F41800207418002010B5054C200000F0F6
:103CD000F5F920002538FF3800F0F0F9012010BD7B
:103CE0001C1A002070B5084C002520003130FF3030
:103CF000257000F0F5FC20000C3000F0F1FC2A23C8
:103D0000FF33E554657170BDF4180020F8B55746CF
:103D10004546DE464E46E0B54B7980460F00FF2B08
:103D200027D1424B0C7899462A234946FF33CB5C76
:103D3000002B1ED14E79002E1BD1BB783C190B7085
:103D40003B79002B12D098235B004B449A460C23FE
:103D50004B449B46A5186378052B05D110E02378CA
:103D6000E4186378052B0BD0A542F8D8E01B80B28D
:103D700000E00020F0BCBB46B246A946A046F8BD14
:103D8000A542F3D921004046FFF744FB0028F0D0BC
:103D9000A3780136F6B2DB09012B29D0504600F09A
:103DA0009FFC2A234946A278FF33CA5463792279BB
:103DB0001B0213431E4A5B0594465B0D942163442A
:103DC0005A4253414A4602204900525C5B008243FA
:103DD00013434A46535451464046083900F0D6F939
:103DE0000028C6D02378E4183B79B342B3D8BDE7A6
:103DF000584600F075FC5A46A3780C3A5371637923
:103E000021791B020B430A495B058C465B0D634419
:103E100059424B41022011795B0081430B435946C3
:103E200000200839137100F07FF9DBE7F418002057
:103E300000FEFFFF70B505002A201F4CFF30205CFC
:103E40001E006379884203D000208B421DD070BDD4
:103E50009A235B00E35A002B0DD1184B002B04D0A2
:103E600000201749B2B200E000BF2800154900F059
:103E70008DF90120EBE72000962331305B00E158FB
:103E8000B2B2FF3000F070FBE7E70F4B002B04D01D
:103E900031040020090C00E000BF0C4C2800210078
:103EA00000F042F90028E4D132002100280000F09F
:103EB00007F90120CBE7C046F418002000000000FD
:103EC000741800201C1A002000000000F8180020C0
:103ED00000B5030083B0002910D00020012B07D8C3
:103EE0000A78002A04D00B48C2540120012A01D0CC
:103EF00003B000BD1800FEF7C1FDF9E7012301A9D9
:103F000000200B80FEF7BAFD0028F1D00122014B02
:103F10001A70EDE74C170020037870B5DB0704003A
:103F20000E00DD0F002B17D103785B0701D52800A9
:103F300070BD01213000494200F0CAFC2378DB0744
:103F4000DD0F002B0AD123785B0708D404222378E5
:103F500001251343237002E00025E8E70025300027
:103F600000F09EFCE3E7C04670B50C00012106009E
:103F70004942200000F0ACFC33785B07DD0F002BDA
:103F800004DB200000F08CFC280070BD3378DB07D8
:103F900004D40422337893433370F2E70025F0E72A
:103FA000437902791B021343C2785B0592075B0DCC
:103FB000920F022A1DD0032A0CD00020012A08D11A
:103FC00002394A425141124A944661449942404161
:103FD000C0B2704702394A1E91410E4A494211400F
:103FE0008022D20094460020614499424041C0B2F0
:103FF000EFE7022905D0002040229A424041C0B29A
:10400000E7E7054A981843425841C0B2E1E7C04685
:10401000FF03000040FCFFFF00FEFFFF8A1870B5A1
:10402000914207D27F264C78052C04D00C780919D0
:104030008A42F8D870BD34008D782C406400041991
:10404000ED0963550C7809198A42ECD8F2E7C046AD
:10405000F0B5C64600B582B0150008AA40CA0400F3
:1040600017880BAA1288012090460A002178024086
:1040700081432000114321703A0000933100012355
:10408000083000F0F1F8002E01D0002F08D10A9B73
:10409000012063604346638002B080BCB846F0BD37
:1040A00026001C363000FCF79DFC0023002D01D0BB
:1040B000330000266361A661E9E7C046012070472E
:1040C000F8B502240B7807001C4063425C41144B96
:1040D00064421C40134B08009C4608300D0016003B
:1040E000644400F0F7F8002807D1002E05D03442D0
:1040F00003D101242B781C4201D00020F8BD3800E8
:104100006978FFF7A1F90028F7D02B781C42F4D189
:104110000023002238006978FFF7BEF9EEE7C046B9
:1041200040FEFFFFFF010000F8B50D000835060056
:1041300028000C0000F0CEF8002803D001272378D7
:104140001F4201D00020F8BD30006178FFF77CF9F4
:104150000028F7D028006288616800F03DF92378D4
:10416000051E0BD01F42EDD103006268300061785C
:10417000FFF792F90028E5D02800E4E71F42E1D1DB
:1041800030006178FFF774F9DCE7C046F8B5CE4639
:10419000474680B58A8905000C000B78002A07D1B4
:1041A00001261E423FD00020C0BCB946B046F8BD33
:1041B0009B0734D5FE2380261B029946B6002700B4
:1041C0000837380000F0A4F88642ECD801222378A2
:1041D00090461A42E7D128006178FFF735F90028A8
:1041E000E1D0380000F094F8864231D84146237877
:1041F00062881942D7D14B461840061C904200D91C
:10420000161CB6B200226178002E00D0626833001E
:104210002800FFF741F90028C5D03000C4E7114B52
:1042200040269946CBE74978FFF70EF90028BAD027
:10423000227863881642B6D100226178002B00D024
:1042400062682800FFF728F90028ACD06088ABE747
:10425000424623781A42A6D128006178FFF708F970
:10426000A1E7C046C0FF0000F0B5C64600B5040097
:1042700006A805788020884617001E0000028242AA
:1042800026D8E068002803D00121494200F020FB35
:104290002069002803D00121494200F019FB434660
:1042A000236073045B0CED031D430023E06863810E
:1042B000A780E5802381002801D000F0F1FA206971
:1042C000002801D000F0ECFA012080BCB846F0BD17
:1042D0000020FAE710B5048941898288A3B288B228
:1042E0008C4207D31B1A9BB2101C9A4200D9181C8F
:1042F00080B210BD5100091A5B189BB2F4E7C046AA
:1043000003894089181A43425841C0B27047C046D9
:1043100010B5048941898288A3B288B28C4207D340
:104320001B1A9BB200209A4201D9D21A90B210BD3A
:104330005100091A5B189BB2F4E7C04670B504003F
:1043400000690E00002803D00121494200F0C0FAA4
:1043500025896089A288A9B283B285422CD3CD1A5F
:10436000ADB2002D2ED0AA4208D2914230D3891A84
:104370008BB263819A4203D89B1A9BB29A42FBD9B3
:10438000E28821685204520C53433000C918FDF7EB
:104390005FFC63890125591C89B2A2888B4213D91D
:1043A00000215200891A89B220696181002801D058
:1043B00000F076FA280070BD5500ED1A4D19ADB227
:1043C000002DD0D1618989B252009142ECDBE9E73E
:1043D00089188BB26381CDE7F0B546464F46D64685
:1043E000C0B50600006989469046002803D0012127
:1043F000494200F06DFA31897289B5888BB294B266
:10440000914254D31F1BBFB2002F4AD0BD4205D2E8
:10441000AB4251D25B199CB22F0074814346B84520
:104420003DD89FB2A54203D8641BA4B2A542FBD9D4
:10443000F28831685204520C904662432B1B9BB2A7
:10444000891842469F4225D953439BB21A004846D9
:104450009A46FDF7FDFB434648467D1B64195C43C5
:1044600031685044A2B2FDF7F3FB7189B588CB19CE
:104470009BB26A00994216D99B1A9BB2306973812C
:10448000002801D000F00CFA3800E0BCBA46B14672
:10449000A846F0BD48467A43FDF7DAFBE5E73B1C4A
:1044A000BFE773899BB26A009342E7DBE4E76F00E2
:1044B0003F1BDF19BFB2A7E75B1B9CB2ACE7C0464E
:1044C000F8B50400C0680E00002803D0012149425D
:1044D00000F0FEF9258920896189A288ADB283B2F6
:1044E0008FB2884229D3DB1B9BB29A4209D8E77965
:1044F000FF0906D1E068002801D000F0D1F93800AA
:10450000F8BD95421ED32B009B1A9BB29342FBD25F
:10451000E28820685204520C53433100C018FDF762
:1045200097FB6B1C9BB2A2889D4218D900235200B6
:104530009B1A9BB201272381DCE75100C91B5B1842
:104540009BB2D2E72B00E28820685204520C5343FE
:104550003100C018FDF77CFB0135A288ABB25200D8
:104560009342E7DBE4E7C046F0B557464546DE46F2
:104570004E46E0B5140005000F0083B0002A75D048
:10458000C068002803D00121494200F0A1F92E891A
:10459000E9796A89AB88B6B292B2C90945D1964227
:1045A00000D36DE059008A1AB21892B200218946F0
:1045B0009A4234D29A1A111C92B2A24200D9211CFA
:1045C0008AB29146EA885204520C90464A46B21882
:1045D00092B292464A46D21A92B2934634009E4212
:1045E00003D3E41AA4B29C42FBD242466243286839
:1045F0001B1B9BB2801842464B4554D34B46390097
:104600005A43FDF725FBAB885B00564501D89A4518
:1046100003DB5246D31A9BB29A4653462B81E86875
:10462000002825D000F03CF922E0E9884904490C33
:1046300088469C4227D2964247D3B11A89B28C460B
:104640005800E11A89B28B4661460919814208DB9C
:10465000D11889B20E1BB6B28A46B2423BD9361A7D
:10466000B6B2A21992B29246A146B7E70023994684
:10467000484603B0F0BCBB46B246A946A046F0BDD2
:10468000B21A92B292E700218946002BC7D0414668
:10469000E41A4C431600D118002289B28A46994682
:1046A00093463F199AE753439BB21A0039005C4482
:1046B0000193FDF7CDFA414622004A43019B286849
:1046C00092B2F918FDF7C4FA9DE75800811A7118E3
:1046D00089B28C46B5E7A146B04200DD7EE7BEE771
:1046E00010B50400C068002803D00121494200F041
:1046F000EFF82069002803D00121494200F0E8F8D2
:104700000023E06863812381002801D000F0C8F80D
:104710002069002801D000F0C3F8012010BDC04678
:1047200070B50400C0680D00002803D00121494283
:1047300000F0CEF82069002803D00121494200F0A2
:10474000C7F87F21E379ED011940E0682943E17161
:10475000002801D000F0A4F82069002801D000F062
:104760009FF8012070BDC04610B501000023002253
:10477000002000F043F810BD10B583070AD00300F5
:10478000032102E001330B4205D01A78002AF9D147
:10479000181A10BD030019680C4A0D4C8A188A4378
:1047A00022420FD15968094A04338A188A432242A7
:1047B00008D15968054A04338A188A432242F1D045
:1047C00000E001331A78002AFBD1E1E7FFFEFEFE8C
:1047D0008080808070B5074C074D641BA41005D005
:1047E000013CA300EB589847002CF9D100F04EF89B
:1047F00070BDC0468849001088490010F0B5C64613
:104800001A4C00B52568002D2AD06C681F2C2ADCB4
:10481000002808D10020631C0234A4006B606151A1
:1048200080BCB846F0BD8827A600AE19F25101370A
:10483000FF37BC460122AC446746A2403F68904621
:1048400017436246176084277F00F3510228E1D1A5
:10485000280042468D30FF30036813430360D9E7D8
:10486000034D2560D1E701204042D9E7A41500207F
:1048700014140020034B10B5002B02D00248FFF7A0
:1048800073FF10BD00000000D5470010F8B5C0460A
:1048900001B40248844601BC604700BF0903002000
:1048A00001B40248844601BC604700BF2D020020CD
:1048B00001B40248844601BC604700BF1D0F0020C0
:1048C00001B40248844601BC604700BFC10000201B
:1048D00001B40248844601BC604700BF9D0100202E
:1048E00001B40248844601BC604700BFD50B0020DC
:1048F00001B40248844601BC604700BF01010020AA
:1049000001B40248844601BC604700BF8D0C002002
:1049100001B40248844601BC604700BFFD0B002083
:1049200001B40248844601BC604700BFD90300209F
:1049300001B40248844601BC604700BF3D0C002022
:10494000E916001015170010F9180010351C00109A
:1049500055190010611B00102118001031170010AC
:104960005117001065170010950900106D17001001
:104970005D0D0010B1160010C9050010754800103B
:084980003D250010FD020010AE
:104988000A2A2A2A2050414E4943202A2A2A0A0064
:104998000A0000004E6F207370696E6C6F636B7352
:1049A8002061726520617661696C61626C650000E6
:1049B8004E6F20757365722049525173206172657C
:1049C80020617661696C61626C650000486172649F
:1049D8007761726520616C61726D20256420616C5D
:1049E800726561647920636C61696D6564000000BB
:1049F80048617264206173736572740052656C65F6
:104A080061736500626F6F74325F77323571303869
:104A180030000000322E322E300000007069636FC3
:104A280000000000756C747261736F6E69646F7357
:104A3800000000004A616E203230203230323600E9
:104A480055534220737464696E202F207374646F09
:104A580075740000526173706265727279205069D2
:104A6800000000005069636F00000000426F61722F
:104A780064204344430000005265736574000000DD
:104A8800556E68616E646C656420495251203078B7
:104A980025780A0065702025303258207761732008
:104AA800616C726561647920617661696C61626CC0
:104AB8006500000043616E277420636F6E74696E31
:104AC80075652078666572206F6E20696E61637403
:104AD80069766520657020253032580006005250EE
:104AE800D3F07542044A001006005250E182887FD4
:104AF8000C4A001006005250ABB360531C4A001019
:104B080006005250BBFF3CB6244A00100600525023
:104B1800861C03022C4A0010060052505422A29D03
:104B28003C4A001005005250DE65F4686C5D0010C8
:104B38000D0A000000000000851F001000000000A2
:104B4800891F0010951F0010C11F0010BD1F001005
:104B5800000000000A00000000000306A60008008C
:104B6800020002009C001400030057494E555342AE
:104B780000000000000000000000800004000100A8
:104B8800280044006500760069006300650049005C
:104B98006E007400650072006600610063006500C5
:104BA800470055004900440000004E007B006200A9
:104BB80063003700330039003800630031002D00EE
:104BC80037003300630064002D0034006300620086
:104BD80037002D0039003800620038002D003900F8
:104BE800310033006100380066006300610037005F
:104BF8006200660036007D0000000000050F2100FD
:104C0800011C100500DF60DDD88945C74C9CD265C2
:104C18009D9E648A9F00000306A600010000000014
:104C28000600525053B4F4A1484A00100000000096
:104C38005C4A00106C4A0010E8200020744A0010FA
:104C4800804A001009025400030100807D080B000F
:104C58000202020000090400000102020004052407
:104C68000020010524010001042402060524060091
:104C7800010705810308001009040100020A000069
:104C880000070502024000000705820240000009F3
:104C980004020000FF00010512011002EF020140AA
:104CA8008A2E0A000001010203010000A42B001053
:104CB8000C2D00105C2D0010E42C0010F62C0010B8
:104CC800D42C0010442C0010F02B0010E42B001002
:104CD800C6300010AC3000107C2E0010E6300010FA
:104CE8007C2E001094300010803000107C2E0010B4
:104CF8006C300010722F00107C2E00105233001000
:104D080044330010383300107C2E00107C2E001025
:104D180022330010443300107C2E00107C2E00102B
:104D28007C2E00107C2E00107C2E00107C2E001093
:104D38007C2E0010D83200105E0D00205E0D002081
:104D4800A80D0020C80D00200C0E00201E0E00200B
:104D5800540D002000000000ED3800105D390010EF
:104D680091390010DD390010853A00106D3B0010B4
:104D780000000000000000006D3C0010C93C00105D
:104D8800E53C00100D3D001025200010353E0010B8
:044D98000000000017
:104D9C00E44A0010F04A0010FC4A0010084B0010C6
:104DAC00144B0010204B00102C4B0010284C001002
:104DBC0003000068EFF3108C72B60268002AFCD076
:104DCC00BFF35F8F04229A56002A04DB002900D01F
:104DDC000A60002004E0D0220120120612681A7129
:104DEC001B68BFF35F8F00221A608CF3108870472A
:104DFC00F0B5C646150000B504001E000268EFF3BE
:104E0C00108172B61368002BFCD0BFF35F8F0423A4
:104E1C00E356002B2DDB2268BFF35F8F0020106060
:104E2C0081F31088D0221206127852B290469A4220
:104E3C0003D1002080BCB846F0BD00270BE02368EE
:104E4C00BFF35F8F1F6081F310882800310000F0E2
:104E5C000FFF0028EDD12268EFF3108172B61368B2
:104E6C00002BFCD0BFF35F8F23797F2BE7D9434610
:104E7C0002E0D0231B061B6823712368BFF35F8FEE
:104E8C0000221A6081F310880120D3E7F0B5C646E2
:104E9C0000B50D00040000F0C3FEFA2206000F005E
:104EAC00002328000021920000F0B2FE8023361867
:104EBC004F411B069F4202D30126174F7642D02347
:104ECC001B061B68002598460BE02368BFF35F8F19
:104EDC001D6081F310883000390000F0C9FE0028F5
:104EEC0018D12268EFF3108172B61368002BFCD036
:104EFC00BFF35F8F23797F2BE7D943462371236858
:104F0C00BFF35F8F00221A6081F31088012080BCF0
:104F1C00B846F0BD0020FAE7FFFFFF7F0268EFF311
:104F2C00108172B61368002BFCD0BFF35F8FFF2388
:104F3C0003710368BFF35F8F00221A6081F310883E
:104F4C0040BF704710B5084C2378002B0AD1802342
:104F5C00064807495B051A68C25004338B42FAD1E4
:104F6C000123237010BDC046FC200020401B001004
:104F7C000001001010B5014B984710BD411B0020DB
:104F8C00064B5A6802609A684260DA6882601A6955
:104F9C00C2605A6902619B6943617047000002401C
:104FAC000268064B5A6042689A608268DA60C2688E
:104FBC001A6102695A6142699A61704700000240A5
:104FCC00034B1A68C0239B009343024A136070473B
:104FDC000C8001400C900140054B1A6880239B000B
:104FEC005340C02292001340024A13607047C046DF
:104FFC000C8001400C9001401423F0B5D6464F466E
:10500C0046469A46C0B581461888043386B0984601
:10501C000E001B882949140098475346070018882E
:10502C00434627491B889847534605001888434632
:10503C0024491B8898478046FFF784FF6846FFF792
:10504C009FFFB847A847FFF7C7FF221E20D0C021FB
:10505C0008270220490511E0002C14D0131B0D2B3E
:10506C0024D9002D0AD02300002A05D00B6E013A5A
:10507C003370130001362343002B09D03D008B6A9B
:10508C001D401842E8D1002DEDD123001343F5D17A
:10509C00FFF796FFC047FFF76DFF6846FFF780FFED
:1050AC0006B0E0BCBA46B146A846F0BD4B461B78EC
:1050BC00013C0B6601239C46E144E4E749460000B1
:1050CC0045580000464300000022154B10B59A606D
:1050DC00DA601A615A619A61DA611A625A629A62EA
:1050EC00DA621A635A639A63DA631A645A649A64CA
:1050FC00DA641A655A659A65DA651A665A669A66AA
:10510C00DA661A675A679A67DA67F03292000021FA
:10511C00044800F0A5FD044B044A1A6010BDC046BB
:10512C0000001050EC1C0020B42000208001105016
:10513C00F0B54E464546DE465746E0B5214B0024B9
:10514C009E6D012585B0002E22D01F4B9A4601235F
:10515C0099461E4B984601E0202C19D02A002300BA
:10516C0001342F003240E4B26D00002AF4D05246D4
:10517C0097654A465B085B0022409B185B014344E1
:10518C0018009B4600F030FC002808D1BE43E3D148
:10519C0005B0F0BCBB46B246A946A046F0BD5B4686
:1051AC00E0219A78DB8A01A883600023C900018082
:1051BC0001210271437100F037FC584600F0B0FB3E
:1051CC00E4E7C0460000115000301150AC1C002028
:1051DC009823F0B5C646C64A00B5D55880232E0094
:1051EC009B02102484B01E401D4273D0C14BC24C94
:1051FC009A6AC24B00261A603B23E35C022B00D157
:10520C00F4E07B23E35C022B00D10CE1BB23E35CD9
:10521C00022B00D1FBE0FB23E35C022B00D135E138
:10522C003C23FF33E35C022B00D122E17C23FF33D0
:10523C00E35C022B00D10FE1BC23FF33E35C022BB8
:10524C0000D1FCE0FC23FF33E35C022B00D1A6E190
:10525C00AB4BE35C022B00D196E1AA4BE35C022B37
:10526C0000D185E1A84BE35C022B00D174E1A74B84
:10527C00E35C022B00D163E1A54BE35C022B00D174
:10528C002AE1A44BE35C022B00D10BE1A24BE35CC3
:10529C00022B00D18FE1A14BE35C022B00D1A6E1E4
:1052AC00002E08D19E4B1B78002B04D180219D4AE7
:1052BC0090338902D150C0228D4B01A89B6C920077
:1052CC005B055B0D012180260280436000F0ACFB86
:1052DC00954CB602EB0600D57CE080235B021D42A8
:1052EC0032D01E43012302249846834FBB7E002BF1
:1052FC0014D000F0A5FC012800D96FE0C0220021D9
:10530C003800920100F012FB380000F009FB00F0AD
:10531C0097FC012802D9834B5C661C664346FB70E4
:10532C002037012C01D00124E0E7C02301A8DB00C9
:10533C007E4A038002AB12CA12C3012100F074FB37
:10534C008022784B92021A6580235B011D420ED19C
:10535C008023DB011D4221D180231B021D422CD155
:10536C00AE4200D0C0E104B080BCB846F0BD002411
:10537C001E435F4B1C60FFF7A7FE80236A465B0051
:10538C0093801472012101A800F04EFB8022654B22
:10539C0012031A658023DB011D42DDD01E438023DE
:1053AC0001A8DB000380012100F03EFB10225D4BC5
:1053BC001A6580231B021D42D2D01E43A02301A8D4
:1053CC00DB000380012100F02FFB8022554B1201E2
:1053DC001A65C5E7FFF7ACFE26007EE7544B444A3E
:1053EC001C66536E2340A342FBD187E73833E65C3F
:1053FC00002E00D105E70233E25C002A00D100E761
:10540C00200000222030E25400F0B8FAF9E6B8335C
:10541C00E75C002F00D1FEE60233E25C002A00D0EC
:10542C0022E13E00F7E67833E75C002F00D1EDE691
:10543C000233E25C002A00D00EE13E00E6E6B9330E
:10544C00FF33E75C002F00D1FCE60233E25C002A5C
:10545C0000D0F8E03E00F5E67933FF33E75C002F2F
:10546C0000D1E9E60233E25C002A00D0E2E03E0023
:10547C00E2E63933FF33E75C002F00D1D6E6023386
:10548C00E25C002A00D0CCE03E00CFE6F833E75CCB
:10549C00002F00D1C4E60233E25C002A00D0B8E051
:1054AC003E00BDE6234BE75C002F00D1EEE6023355
:1054BC00E25C002A00D010E1174BE35C022B00D118
:1054CC008BE0164BE35C022B00D0F4E61A4BE35C4A
:1054DC00002B00D090E0EEE6184BE75C002F00D1DB
:1054EC00CFE60233E25C002A00D0EEE03E00C8E6D4
:1054FC000000115000400540AC1C0020A41C0020F2
:10550C003B0200007B020000BB020000FB0200001B
:10551C003B0300007B030000BB030000FB03000007
:10552C00FA20002000301150100002000000105032
:10553C00002011507A030000FA0300003A03000027
:10554C006C4BE75C002F00D196E60233E25C002A3C
:10555C0000D0B2E03E008FE6674BE75C002F00D135
:10556C0085E60233E25C002A00D09EE03E007EE637
:10557C00624BE75C002F00D174E60233E25C002A38
:10558C0000D08AE03E006DE65D4BE75C002F00D159
:10559C0063E60233E25C002A77D13E005DE6F93324
:1055AC00FF33E75C002F00D152E60233E25C002AA5
:1055BC0062D13E004CE6534BE35C002B00D16AE613
:1055CC00EF239B00E25C002A00D17AE70022E25430
:1055DC001C3BE01800F0D2F973E74A4BE35C002B5C
:1055EC00EED1494BE35C022B00D064E63E00474B06
:1055FC00E35C002B00D153E6FF239B00E25C002A06
:10560C0000D158E60022E2541C3BE01800F0B6F939
:10561C0051E620000022E030E2543E0000F0AEF9EA
:10562C00FEE5200000222130FF30E2543E0000F065
:10563C00A5F9FBE5200000226130FF30E2543E006A
:10564C0000F09CF9F8E520000022A130FF30E25474
:10565C003E0000F093F9F5E5200000226030E254A2
:10566C003E0000F08BF9D1E520000022A030E2547E
:10567C003E0000F083F9CEE520000022E130FF303F
:10568C00E2543E0000F07AF9E2E50022E2541C3BC1
:10569C00E01800F073F93E00DFE50022E2541C3BF9
:1056AC00E01800F06BF93E00DCE50022E2541C3BF4
:1056BC00E01800F063F93E00D9E50022E2541C3BEF
:1056CC00E01800F05BF93E00D6E50022E2541C3BEA
:1056DC00E01800F053F93E00D3E50022E2541C3BE5
:1056EC00E01800F04BF9E7E631000948694000F09A
:1056FC009FFAC046FA020000BA0200007A020000CB
:10570C003A020000BA030000FB030000FA03000099
:10571C00884A0010F0B5D6464F464646C0B5020042
:10572C00838A008B8A46041C984200D91C1CD578AD
:10573C0080262800471EB841A4B2F6002643400339
:10574C003043012675401B1BD57055789BB2938254
:10575C00002D37D15146D6688D01611E76198846C9
:10576C001569002C29D006293AD933002B439B0705
:10577C0036D16B1CF31A022B32D9231F9B08013331
:10578C009C4600270023E9580137F1500433BC45EF
:10579C00F9D8634641469B00ED18F618CF1A9C4287
:1057AC0009D02B783370002F05D06B787370012FD4
:1057BC0001D0AB78B3701569938A2D1915618022CD
:1057CC0012021043002B02D18023DB0118435346F5
:1057DC00002B00D00004E0BCBA46B146A846F0BD90
:1057EC000023EF5CF75401339C42FAD11569938A7C
:1057FC00E3E7C0468368F0B51B680500002900D0BC
:10580C001B0C9B05980D6B78002B08D1EB8AC318E9
:10581C00EB822B8B834201D90023AB82F0BDEB686A
:10582C008901461EB4462A695C18002827D0062E2A
:10583C002BD901315B18D31A022B26D91300234321
:10584C009B0722D100230021061FB6080136E7581A
:10585C000131D75004338E42F9D86346B600A419EF
:10586C0092199F1BB04209D023781370002F05D0DA
:10587C0063785370012F01D0A37893702A69EB8A57
:10588C001218C318EB822A61C3E70023E15CD154E0
:10589C0001339842FAD12A69F1E7C04610B50400E9
:1058AC00836800211B68FFF7A5FF63681B685B001A
:1058BC0002D5238B834200D010BD01212000FFF7BD
:1058CC0099FFF9E7084A0300126C0020920703D4F1
:1058DC009A78D209012A00D07047D87E0238434208
:1058EC005841C0B2F8E7C0460000115010B5FFF7A0
:1058FC00E9FF00280CD00749074B8C46074A9B6AE6
:10590C00126863449B1A0020C6229A424041C0B2DE
:10591C0010BDC046E0FCFFFF00400540A41C002069
:10592C0000238376436103617047C04610B58368DA
:10593C00002901D01C682140002A12D08024E400E8
:10594C00114322420DD01A6822420CD1084A0A4057
:10595C001A60084A126C920703D40C23033BFDD245
:10596C008368196010BD8178034800F061F9C04666
:10597C00FFFBFFFF000011509C4A0010436870B5FC
:10598C00002180251E680400FFF7C4FE134B6D0137
:10599C001B6C05439B070FD5A3785B060FD0104BF0
:1059AC001E4080239B053343626800211360200056
:1059BC002A00FFF7BBFF70BDA378DB09EFD0A38AE9
:1059CC00002BECD001212000FFF7A4FEA023054AF8
:1059DC00DB05324005431343E6E7C0460000115097
:1059EC00FFFFFFAFFFFFFFDF70B5857E0400002DCA
:1059FC0014D0FFF753FFA38A002B01D1280070BDF0
:105A0C002000FFF773FF002803D001230025237724
:105A1C00F4E72000FFF7B2FF0025EFE7817801489B
:105A2C0000F006F9BC4A0010F0B5CE46474680B5EA
:105A3C00437805000E0085B0062B08D86C4A9B00F5
:105A4C00D3589F466B4A13780133DBB213706A4B01
:105A5C001C686269EFF3108172B61368002BFCD0DE
:105A6C00BFF35F8FA1612000290000F0F1F862699B
:105A7C00A369BFF35F8F0021116083F310880028A6
:105A8C0004D105B0C0BCB946B046F0BD320069784F
:105A9C00287800F0F5F8F4E70121584B1A788A437E
:105AAC001A701A7801318A431A7000225A701A78C7
:105ABC0002318A431A70CAE75149524F89465249FA
:105ACC000024002388463A7812E043461B686101A3
